:100000000C941C010C9439010C9439010C943901A5
:100010000C9439010C9439010C9439010C94390178
:100020000C9439010C9439010C9439010C94390168
:100030000C9439010C9439010C9439010C94390158
:100040000C9439010C9439010C9439010C94390148
:100050000C943901030508000000000000005F0057
:10006000000007000700147F147F14242A7F2A123F
:10007000231308646236495522500005030000002E
:100080001C2241000041221C00082A1C2A080808E2
:100090003E0808005030000008080808080030300A
:1000A000000020100804023E5149453E00427F40B6
:1000B0000042615149462141454B311814127F10CD
:1000C00027454545393C4A49493001710905033600
:1000D00049494936064949291E003636000000566E
:1000E0003600000008142241141414141441221480
:1000F00008000201510906324979413E7E11111171
:100100007E7F494949363E414141227F4141221C7F
:100110007F494949417F090901013E414151327FEF
:100120000808087F00417F41002040413F017F08CF
:100130001422417F404040407F0204027F7F040838
:10014000107F3E4141413E7F090909063E41512150
:100150005E7F09192946464949493101017F01015C
:100160003F4040403F1F2040201F7F2018207F63DA
:1001700014081463030478040361514945430000E3
:100180007F4141020408102041417F000004020128
:1001900002044040404040000102040020545454F6
:1001A000787F484444383844444420384444487FA5
:1001B0003854545418087E090102081454543C7FE2
:1001C0000804047800447D40002040443D00007F46
:1001D00010284400417F40007C041804787C080407
:1001E000047838444444387C14141408081414184F
:1001F0007C7C080404084854545420043F444020A4
:100200003C4040207C1C2040201C3C4030403C4472
:10021000281028440C5050503C4464544C4400086E
:1002200036410000007F0000004136080008082A1F
:100230001C08081C2A08080011241FBECFE5D8E0BE
:10024000DEBFCDBF10E0A0E6B0E0E2EEFCE002C011
:1002500005900D92A03CB107D9F710E0A0ECB0E0FA
:1002600001C01D92AC3FB107E1F70E947B040C94E2
:100270006F060C940000DF98DE98882311F0DA9A5C
:1002800001C0DA988BB3DE9AE7E6F0E0DE98808171
:10029000862311F0DA9A01C0DA988BB3DE9A31978F
:1002A00080E0EF35F80791F7DF9A08951F93182F34
:1002B0006F70606B80E00E943B01612F6F7080E087
:1002C0000E943B0112951770106180E0612F0E941F
:1002D0003B011F9108950F931F9380E060E00E94FF
:1002E000560180E06EEA0E943B0100E00AC081E016
:1002F00060E00E943B011F5F1036C9F70F5F0930B5
:1003000011F010E0F4CF80E06FEA0E943B011F91F2
:100310000F910895D79ADF9AD29ADA98D69ADE98F2
:10032000D49ADC98D39ADB98DF9884EF91E020E9A7
:1003300031E0F9013197F1F70197D9F7DC9A80E0C4
:1003400063E20E943B0180E060E90E943B0180E0A3
:1003500064EA0E943B0180E06FE20E943B0180E082
:1003600060E40E943B0180E060EB0E943B0180E082
:1003700060E10E943B0180E060E00E943B0180E080
:100380006CEA0E943B0180E067E00E943B0180E054
:100390006FEA0E943B010E946B0180E067EA0E94C5
:1003A0003B0188E893E120E931E0F9013197F1F769
:1003B0000197D9F780E066EA0E943B0188E893E163
:1003C00020E931E0F9013197F1F70197D9F7089564
:1003D00008951F93182F80E061E20E943B0110688E
:1003E00080E0612F0E943B0180E060E20E943B01BF
:1003F0001F910895882311F0DB9A01C0DB988BB31D
:100400000895089580E0089508950895FC0190935B
:10041000C6008093C50084918093C7003196849173
:100420008093C4003196E491E093C30008958093D3
:10043000C00070E02091C2008091C30090E0820F64
:10044000911D9C01629FC001639F900D729F900D52
:1004500011248093C1000895AC0120E001C02F5FFA
:10046000FA01E20FF11D80818823C9F7822F0895D8
:10047000BC0120E001C02F5F422F50E0FB01E40FE0
:10048000F51F80818823B9F7809168009091C4009E
:10049000890F829F802D11240895EF92FF920F9370
:1004A0001F93CF93DF93E62E90E080972091C400B6
:1004B00030E0829FE001839FD00D929FD00D1124E8
:1004C0008091C700C80FD11D00E02AC0CE01800F67
:1004D000911DE091C500F091C600E80FF91FF4905E
:1004E000FF0C10E018C0E12FF0E0E759FF4F8081CA
:1004F0008F219091C0006091C100882329F0610F85
:10050000802F890F4E2D04C0610F802F890F40E08E
:100510000E9401021F5F8091C300181720F30F5F34
:100520002091C400021790F2809168009091C00061
:10053000890F820F8093C000DF91CF911F910F919F
:10054000FF90EF9008952F923F924F925F926F929B
:100550007F928F929F92AF92BF92CF92DF92EF9253
:10056000FF920F931F93DF93CF930F92CDB7DEB718
:10057000882E8091C2006091C30070E0680F711DE9
:1005800081E490E00E94480669832090C400309086
:100590006800109268009924482C5524662477241A
:1005A00060C09092C000212F30E04091C200809145
:1005B000C30090E0840F911DAC01249FC001259FD2
:1005C000900D349F900D11248093C10080E260E073
:1005D0000E944D021F5F5981151718F3C301B20124
:1005E0000E942F055B016C0120E030E04AE755E4F2
:1005F0000E94BD057B018C0120E030E040E85FE314
:100600000E94FF0488231CF461E070E023C0C8014D
:10061000B70120E03FEF4FE757E40E94B9051816F5
:10062000ACF4C601B50120E030E040E251E40E94A4
:10063000BD050E94030506C080E991E00197F1F72E
:100640006150704061157105B9F707C0C801B70165
:100650000E940305CB010197F1F7920C8FE58915F4
:1006600010F010E0B8CF309268006AE0869EB001CA
:100670001124882777FD8095982F0E9431055B0112
:100680006C0120E030E04AE755E40E94BD057B01A3
:100690008C0120E030E040E85FE30E94FF04882303
:1006A0001CF461E070E024C0C801B70120E03FEF16
:1006B0004FE757E40E94B9051816B4F4C601B50116
:1006C00020E030E040E251E40E94BD050E940305B5
:1006D00080E991E005C0FC013197F1F7615070406D
:1006E00061157105C1F707C0C801B7010E94030574
:1006F000CB010197F1F70F90CF91DF911F910F91EF
:10070000FF90EF90DF90CF90BF90AF909F908F9031
:100710007F906F905F904F903F902F9008952F9211
:100720003F924F925F926F927F928F929F92AF9281
:10073000BF92CF92DF92EF92FF920F931F93DF93BE
:10074000CF9300D00F92CDB7DEB72983402E6093B0
:10075000C00090E06091C2002091C30030E0260FFD
:10076000311DBC01629FC001639F900D729F900D6F
:1007700011248093C1005B834A8355246E2C772417
:100780008824992480E9282E81E0382E4BC0EA8104
:10079000FB818081642D0E944D02C401B3010E943F
:1007A0002F055B016C0120E030E04AE755E40E9430
:1007B000BD057B018C0120E030E040E85FE30E9452
:1007C000FF0488231CF461E070E022C0C801B70177
:1007D00020E03FEF4FE757E40E94B9051816A4F454
:1007E000C601B50120E030E040E251E40E94BD05C1
:1007F0000E94030505C0C1010197F1F761507040E7
:1008000061157105C1F707C0C801B7010E94030552
:10081000CB010197F1F753946A817B816F5F7F4F22
:100820007B836A837981571608F4B1CF0F900F90BC
:100830000F90CF91DF911F910F91FF90EF90DF907C
:10084000CF90BF90AF909F908F907F906F905F9070
:100850004F903F902F9008951F93CF93DF93EC011B
:10086000162F80E06EEA0E943B0103C0612F0E94B8
:100870004D0289918823D1F76FEA0E943B01DF91F5
:10088000CF911F91089581E061E00E94170281E7F6
:1008900090E061E00E942C0481E064E00E94170275
:1008A00080E890E061E00E942C0481E066E00E9414
:1008B000170285E890E061E00E942C0480E29EE44B
:1008C00020E931E0F9013197F1F70197D9F70E945A
:1008D0006B0108950E948A018AE00E94E90181E08B
:1008E0000E94FA010E946B0184E590E00E940602DA
:1008F0000E9443040895EF920F931F930E946A048D
:1009000082E990E00E942C02282F81E061E042E918
:1009100050E001E076E9E72E0E948F0380E29EE43A
:1009200020E931E0F9013197F1F70197D9F782E930
:1009300090E00E942C02282F81E061E042E950E023
:1009400000E032E3E32E0E948F0380E197E220E98A
:1009500031E0F9013197F1F70197D9F781E790E09C
:100960000E942C02282F80E061E041E750E001E086
:1009700094E6E92E0E948F0382E990E00E942C0207
:10098000282F82E061E042E950E00E948F0381EA73
:1009900090E00E942C02282F84E061E041EA50E0C0
:1009A0000E948F030091C0001091C100C8010E94F5
:1009B0002C02282F86E061E0A80101E00E948F034D
:1009C00080E395E720E931E0F9013197F1F70197EC
:1009D000D9F784E60E94A30288E893E120E931E098
:1009E000F9013197F1F70197D9F781E061E00E94B1
:1009F00017028FEA90E061E00E942C04FFCF6CD0D8
:100A000008F481E0089594D088F09F5790F0B92FB2
:100A10009927B751A0F0D1F0660F771F881F991F53
:100A20001AF0BA95C9F712C0B13081F09BD0B1E08D
:100A3000089598C0672F782F8827B85F39F0B93F9D
:100A4000CCF3869577956795B395D9F73EF4909555
:100A50008095709561957F4F8F4F9F4F0895E894D3
:100A600009C097FB3EF490958095709561957F4FF6
:100A70008F4F9F4F9923A9F0F92F96E9BB279395A4
:100A8000F695879577956795B795F111F8CFFAF4B4
:100A9000BB0F11F460FF1BC06F5F7F4F8F4F9F4FE5
:100AA00016C0882311F096E911C0772321F09EE843
:100AB000872F762F05C0662371F096E8862F70E0A9
:100AC00060E02AF09A95660F771F881FDAF7880F83
:100AD0009695879597F90895990F0008550FAA0BD9
:100AE000E0E8FEEF16161706E807F907C0F0121641
:100AF0001306E407F50798F0621B730B840B950B44
:100B000039F40A2661F0232B242B252B21F4089598
:100B10000A2609F4A140A6958FEF811D811D089535
:100B200057FD9058440F551F59F05F3F71F047959E
:100B3000880F97FB991F61F09F3F79F08795089583
:100B4000121613061406551FF2CF4695F1DF08C0A2
:100B5000161617061806991FF1CF869571056105BF
:100B600008940895E894BB2766277727CB0197F967
:100B70000895B2DF08F48FEF08950BD078C069D0E4
:100B800028F06ED018F0952309F05AC05FC01124E8
:100B9000EACFC6DFA0F3959FD1F3950F50E0551F24
:100BA000629FF001729FBB27F00DB11D639FAA27C2
:100BB000F00DB11DAA1F649F6627B00DA11D661F11
:100BC000829F2227B00DA11D621F739FB00DA11D32
:100BD000621F839FA00D611D221F749F3327A00DEC
:100BE000611D231F849F600D211D822F762F6A2F88
:100BF00011249F5750408AF0E1F088234AF0EE0F0D
:100C0000FF1FBB1F661F771F881F91505040A9F719
:100C10009E3F510570F014C0A6CF5F3FECF3983EA5
:100C2000DCF3869577956795B795F795E7959F5F80
:100C3000C1F7FE2B880F911D9695879597F908951A
:100C400097F99F6780E870E060E008959FEF80EC7F
:100C5000089500240A941616170618060906089522
:100C600000240A9412161306140605060895092E88
:100C70000394000C11F4882352F0BB0F40F4BF2BF7
:100C800011F460FF04C06F5F7F4F8F4F9F4F089537
:100C900097FB092E07260AD077FD04D00CD006D08A
:100CA00000201AF4709561957F4F0895F6F790959E
:100CB00081959F4F0895AA1BBB1B51E107C0AA1F36
:100CC000BB1FA617B70710F0A61BB70B881F991FED
:100CD0005A95A9F780959095BC01CD010895F89497
:020CE000FFCF44
:100CE2000102040810204080010102040810204083
:100CF20080532D466F6E7420746573742E2E2E00F1
:100D02006279203A005777772E456C6173612E69BC
:100D12007200436F6D706C657465206D6F64652140
:100D2200005777772E456C6173612E6972210059E5
:100D3200455321212120203A290071009200A1006F
:00000001FF
